S00E00006163745F30342E737265631B
S11300000C9434000C9475000C9451000C94510021
S11300100C9451000C9451000C9451000C94510018
S11300200C9451000C9451000C9451000C940F0248
S11300300C9451000C9451000C9451000C945100F8
S11300400C9451000C9451000C9451000C945100E8
S11300500C9451000C9451000C9451000C945300D6
S11300600C9451000C94510011241FBECFEFD8E022
S1130070DEBFCDBF11E0A0E0B1E0E8EEFAE002C0DF
S113008005900D92A834B107D9F721E0A8E4B1E0B6
S113009001C01D92A335B207E1F70E9490010C94B0
S11300A072050C9400001F920F920FB60F92112448
S11300B08F9300B605FE07C081E08093490180B7A5
S11300C08E7F80BF05C01092490180B7816080BFD8
S11300D08F910F900FBE0F901F90189580B783607B
S11300E080BF80B7886080BF08951F920F920FB6BB
S11300F00F9211248F9381E0809348018DB38E7FFA
S11301008DBB8F910F900FBE0F901F9018958AB1E1
S11301108B7F8AB98BB184608BB9E9E6F0E080818A
S1130120816080838DB381608DBB0895E9EBF0E03D
S113013080818160808384E18093B80084E080932F
S1130140BC00089584EA8093BC008091BC0088239D
S1130150E4F7089584E98093BC008FE99FE0019758
S1130160F1F700C0000008958093BB0084EC8093F5
S1130170BC008091BC008823E4F708950E94A2008B
S113018080E70E94B4008FEF0E94B4002FEF89EF44
S113019090E0215080409040E1F700C0000084E3EB
S11301A00E94B40080E30E94B4008FE39CE90197AD
S11301B0F1F700C0000084E30E94B40080E30E94D1
S11301C0B4008FE99FE00197F1F700C0000084E3D9
S11301D00E94B40080E30E94B4008FE99FE001977D
S11301E0F1F700C0000084E20E94B40080E20E94A3
S11301F0B4008FE99FE00197F1F700C000000E946E
S1130200AA000895CF93DF93C82F0E94A20080E72D
S11302100E94B400DC2FD07F8D2F8C600E94B4002C
S11302208D2F88600E94B40080E1C89FE0011124F2
S11302308C2F8C600E94B4008C2F0E94B4000E940A
S1130240AA008FE39FE10197F1F700C000008FE35C
S11302509FE10197F1F700C00000DF91CF9108956D
S11302600E9496000E94BE008CE20E9402018CE073
S11302700E94020186E00E94020180E80E940201BD
S11302800895CF93DF93C82F0E94A20080E70E94B5
S1130290B400DC2FD07F8D2F8D600E94B4008D2F91
S11302A089600E94B40080E1C89FE00111248C2F72
S11302B08D600E94B4008C2F89600E94B4000E945B
S11302C0AA008FE39FE10197F1F700C000008FE3DC
S11302D09FE10197F1F700C00000DF91CF910895ED
S11302E0E62FF0E0E150FF4F9081890F81580E9482
S11302F0020108950F931F93CF93DF938C01C0E005
S1130300D0E003C00E9441012196F801EC0FFD1FCB
S113031080818111F7CFDF91CF911F910F910895C3
S1130320CF93DF93CDB7DEB761970FB6F894DEBFF6
S11303300FBECDBF0E9487000E946E000E94300154
S11303400E94F701789480914A018130E1F710927C
S11303504A0180914901813041F461E00E947001B9
S113036082E091E00E947A01EECF809148018130D1
S113037081F461E00E9470018FE091E00E947A01B3
S113038062E081E00E9470018DE191E00E947A01B7
S1130390DACFF89480914B0190914C01A0914D01DA
S11303A0B0914E017894BF93AF939F938F938AE259
S11303B091E09F938F938E010F5F1F4F1F930F93B5
S11303C00E94880261E081E00E947001C8010E94DD
S11303D07A0162E081E00E94700187E391E00E946B
S11303E07A010FB6F894DEBF0FBECDBFACCFE1E803
S11303F0F0E080818860808380818360808389EFDE
S113040090E09093890080938800EFE6F0E080818B
S113041082608083109285001092840008951F9258
S11304200F920FB60F9211242F938F939F93AF9334
S1130430BF93809151019091520101969093520182
S113044080935101809148018130B1F480914F0132
S11304509091500101969093500180934F018838F8
S1130460934170F01092500110924F011092480184
S11304708DB381608DBB04C01092500110924F0166
S113048080915101909152018A3F9105B8F11092E7
S11304905201109251018091490181112CC0809127
S11304A04801811128C080914B0190914C01A09189
S11304B04D01B0914E010196A11DB11D80934B01D8
S11304C090934C01A0934D01B0934E0180914B0148
S11304D090914C01A0914D01B0914E01813A964802
S11304E0A140B10540F010924B0110924C011092C2
S11304F04D0110924E0181E080934A01BF91AF916A
S11305009F918F912F910F900FBE0F901F90189570
S1130510AEE0B0E0EEE8F2E00C9449050D891E89E6
S113052086E08C831A8309838FEF9FE79E838D83F4
S1130530AE01475E5F4F6F89788DCE0101960E94B0
S1130540AA02EF81F885E00FF11F10822E96E4E0F5
S11305500C946505ABE0B0E0E0EBF2E00C943B05F5
S11305606C017B018A01FC0117821682838181FF61
S1130570CCC1CE0101963C01F6019381F70193FDB4
S1130580859193FF81917F01882309F4BAC1853253
S113059039F493FD859193FF81917F01853229F48C
S11305A0B60190E00E94A104E7CF912C212C312CBC
S11305B0FFE1F315D8F08B3279F038F4803279F01A
S11305C08332A1F4232D20611DC08D3261F080336C
S11305D069F4232D216016C0832D8260382EE32D0B
S11305E0E4603E2E2AC0F32DF8601DC037FC2DC0F8
S11305F020ED280F2A3040F08E32B9F436FC81C148
S1130600232D2064322E19C036FE06C08AE0989E3F
S1130610200D1124922E11C0EAE02E9E200D1124EB
S1130620222EF32DF0623F2E08C08C3621F4832D48
S11306308068382E02C0883641F4F70193FD859115
S113064093FF81917F018111B3CF982F9F7D9554A2
S1130650933028F40C5F1F4F9FE399830DC08336BA
S113066031F0833771F0833509F059C021C0F801A6
S1130670808189830E5F1F4F88248394912C5301BA
S113068013C02801F2E04F0E511CF801A080B18084
S113069036FE03C0692D70E002C06FEF7FEFC50125
S11306A00E9496044C018201F32DFF773F2E16C061
S11306B0280122E0420E511CF801A080B18036FED0
S11306C003C0692D70E002C06FEF7FEFC5010E9487
S11306D08B044C01F32DF0683F2E820133FC1BC0C8
S11306E0822D90E088169906B0F4B60180E290E07D
S11306F00E94A1042A94F4CFF50137FC859137FEBA
S113070081915F01B60190E00E94A10421102A9416
S113071021E0821A91088114910471F7E8C08436AB
S113072011F0893641F5F80137FE07C06081718107
S1130730828193810C5F1F4F08C060817181072EF5
S1130740000C880B990B0E5F1F4FF32DFF763F2E85
S113075097FF09C090958095709561957F4F8F4F55
S11307609F4FF0683F2E2AE030E0A3010E94DD0491
S1130770882E861845C0853731F4232D2F7EB22E5E
S11307802AE030E025C0932D997FB92E8F36C1F031
S113079018F4883579F0B5C0803719F0883721F01E
S11307A0B0C0E92FE061BE2EB4FE0DC0FB2DF46095
S11307B0BF2E09C034FE0AC0292F2660B22E06C0FF
S11307C028E030E005C020E130E002C020E132E062
S11307D0F801B7FE07C060817181828193810C5F4B
S11307E01F4F06C06081718180E090E00E5F1F4F53
S11307F0A3010E94DD04882E8618FB2DFF773F2E6F
S113080036FE0DC0232D2E7FA22E891458F434FEFB
S11308100BC032FC09C0832D8E7EA82E05C0B82CD7
S1130820A32C03C0B82C01C0B92CA4FE0FC0FE0138
S1130830E80DF11D8081803321F49A2D997EA92E33
S113084009C0A2FE06C0B394B39404C08A2D86786E
S113085009F0B394A3FC11C0A0FE06C0B21488F43E
S1130860280C922C9B180EC0B21460F4B60180E2DE
S113087090E00E94A104B394F7CFB21418F42B189B
S113088002C0982C212CA4FE10C0B60180E390E095
S11308900E94A104A2FE17C0A1FC03C088E790E057
S11308A002C088E590E0B6010CC08A2D867859F024
S11308B0A1FE02C08BE201C080E2A7FC8DE2B6017A
S11308C090E00E94A104891438F4B60180E390E01A
S11308D00E94A1049A94F7CF8A94F301E80DF11DC4
S11308E08081B60190E00E94A1048110F5CF2220FE
S11308F009F442CEB60180E290E00E94A1042A9459
S1130900F6CFF6018681978102C08FEF9FEF2B9679
S1130910E2E10C945705FC01059061507040011010
S1130920D8F7809590958E0F9F1F0895FC01615014
S1130930704001900110D8F7809590958E0F9F1FFD
S113094008950F931F93CF93DF93FB01238121FD20
S113095003C08FEF9FEF2CC022FF16C04681578142
S1130960248135814217530744F4A081B1819D014C
S11309702F5F3F4F318320838C93268137812F5FF4
S11309803F4F3783268314C08B01EC01FB010084A5
S1130990F185E02D0995892BE1F6D80116968D9104
S11309A09C911797019617969C938E931697CE0158
S11309B0DF91CF911F910F910895FA01AA27283052
S11309C051F1203181F1E8946F936E7F6E5F7F4F18
S11309D08F4F9F4FAF4FB1E03ED0B4E03CD0670F94
S11309E0781F891F9A1FA11D680F791F8A1F911DE7
S11309F0A11D6A0F711D811D911DA11D20D009F437
S1130A0068943F912AE0269F11243019305D319378
S1130A10DEF6CF010895462F4770405D4193B3E061
S1130A200FD0C9F7F6CF462F4F70405D4A3318F008
S1130A30495D31FD4052419302D0A9F7EACFB4E0B9
S1130A40A6959795879577956795BA95C9F7009771
S1130A506105710508959B01AC010A2E0694579512
S1130A60479537952795BA95C9F7620F731F841F69
S1130A70951FA01D08952F923F924F925F926F92FF
S1130A807F928F929F92AF92BF92CF92DF92EF921A
S1130A90FF920F931F93CF93DF93CDB7DEB7CA1B9B
S1130AA0DB0B0FB6F894DEBF0FBECDBF09942A88C6
S1130AB0398848885F846E847D848C849B84AA846E
S1130AC0B984C884DF80EE80FD800C811B81AA81FB
S1130AD0B981CE0FD11D0FB6F894DEBF0FBECDBFC6
S10B0AE0ED010895F894FFCF25
S1130AE80040A154656D702E20416C746121004151
S1130AF874656E64657220202020202000496E747D
S1130B08657272757063696F6E00436F756E743ABF
S1130B1820252D366C750020202020202020202020
S10B0B282020202020202000E1
S9030144B7
